:020000040800F2
:10000000100400209D010008490900084509000866
:1000100047090008A9020008F909000800000000CB
:100020000000000000000000000000004D09000872
:10003000AB020008000000004B0900084F0900084F
:10004000B7010008B7010008B7010008B7010008B0
:10005000B7010008B7010008B7010008B7010008A0
:10006000B7010008B7010008B7010008B701000890
:10007000B7010008B7010008B7010008B701000880
:10008000B7010008B7010008B7010008B701000870
:10009000B7010008B7010008B7010008B701000860
:1000A000B7010008B7010008B7010008B701000850
:1000B000B7010008B7010008B7010008B701000840
:1000C000B7010008B7010008B7010008B701000830
:1000D000B7010008B7010008B7010008B701000820
:1000E000B7010008B7010008B7010008B701000810
:1000F000B7010008B7010008B7010008B701000800
:10010000B7010008B7010008B7010008B7010008EF
:10011000B7010008B7010008B7010008B7010008DF
:10012000B7010008B7010008B7010008B7010008CF
:10013000B7010008B7010008B7010008B7010008BF
:10014000B7010008B7010008B7010008B7010008AF
:10015000B7010008B7010008B7010008B70100089F
:10016000B7010008B7010008B7010008B70100088F
:10017000B7010008B7010008B7010008000000003F
:10018000B7010008B7010008DFF80CD000F07AF8DA
:1001900000480047390A000810040020064880473C
:1001A00006480047FEE7FEE7FEE7FEE7FEE7FEE75C
:1001B000FEE7FEE7FEE7FEE7DD090008890100082B
:1001C0002DE9F05F0546002092469B46884606468C
:1001D000814640241BE0284641464746224600F01F
:1001E00041F853465A46C01A914110D31146184659
:1001F000224600F028F82D1A67EB01084F462246E8
:100200000120002100F01FF817EB00094E41201ECD
:10021000A4F10104DFDC484631462A464346BDE8E6
:10022000F09FD2B201E000F8012B491EFBD27047CB
:100230000022F6E710B513460A4604461946FFF7B2
:10024000F0FF204610BD202A04DB203A00FA02F11C
:10025000002070479140C2F1200320FA03F31943B4
:1002600090407047202A04DB203A21FA02F0002156
:10027000704721FA02F3D040C2F1200291400843B6
:1002800019467047064C074D06E0E06840F0010350
:1002900094E8070098471034AC42F6D3FFF778FF94
:1002A0009C0A0008BC0A0008FEE7704709490920BB
:1002B0000860094900200860084B4FF088521A6016
:1002C0001A1D1060121D10608860121D1060C86039
:1002D000704700003038024000000240000C02402D
:1002E00070B5044600F00EF80546601C02D00448C4
:1002F0000078044400F006F8401BA042FAD370BD19
:1003000000000020014880687047000000000020C5
:100310000248816802781144816070470000002023
:100320000B4810B5016841F400710160016841F4A7
:1003300080610160016841F480710160032000F078
:1003400063F8002000F006F800F024F8002010BD4B
:10035000003C024070B50D4D04464FF47A71287888
:10036000B1FBF0F00A490968B1FBF0F000F0D6FAF1
:1003700048B9102C07D200222146501E00F024F864
:1003800000206C6070BD012070BD000000000020E6
:100390000C0000200B4882B0016841F480410160EC
:1003A000006800F4804000900648001F016841F09A
:1003B00080510160006800F080500090072002B07A
:1003C00000F022B844380240F0B40E4B1B680C46D3
:1003D000C3F30223C3F10705042D00D90425191D19
:1003E000072901D2002300E0DB1E012606FA05F1F1
:1003F000491E214099409E40761E16403143F0BC74
:1004000000F0FBBA0CED00E0064900F007020868B6
:100410004FF6FF03184040EA0220034A10430860E9
:10042000704700000CED00E00000FA052DE9F047F0
:100430000E46050065D0DFF81481D8F80000F7B249
:1004400000F00F00B04207D288F80070D8F8000022
:1004500000F00F00B04254D128683D4C810712D5FE
:10046000400703D5206840F4E0502060287800075A
:1004700003D5206840F4604020602068A96820F01F
:10048000F000084320602878C0072DD03049686804
:100490000839012812D0022813D0032811D0096886
:1004A000890700292DDA216821F003010143216029
:1004B000FFF728FF814641F2883A0EE00968890378
:1004C000EFE709688901ECE7FFF71CFFA0EB0901E2
:1004D000514502D90320BDE8F0872068696800F023
:1004E0000C00B0EB810FEFD1D8F80010404601F0BE
:1004F0000F01B14207D90770006800F00F00B04249
:1005000001D00120E7E72878400705D52068E96891
:1005100020F4E050084320602878000706D52068C2
:10052000296920F4604040EAC100206000F018F81A
:100530002168084AC1F30311515CC84006490860AC
:1005400006480068FFF706FF0020C4E7003C0240B1
:10055000083802408C0A00080C000020040000202B
:10056000154810B5006810F00C02144813D0411063
:10057000042A0FD0082A0ED10F4C241F22682368AA
:1005800002F03F025B0207D52068C0F38810A0FB91
:10059000010106E0084610BD2168C1F38811A1FBE6
:1005A00000010023FFF70CFE2168C1F30141491C43
:1005B0004900B0FBF1F010BD083802400024F400FF
:1005C0002DE9F84F040076D02078DFF838A3CE4D1F
:1005D000C00749D0DAF800105046C1F38101012963
:1005E00008D00068C0F3810002280AD1281D0068E5
:1005F000400206D52868800336D560680028E2D01E
:1006000032E06068B0F5803F10D0B0F5A02F2868C8
:1006100010D020F480302860286820F480202860E2
:100620006068A0B1FFF76EFE06460CE0286840F453
:100630008030F4E740F480202860F7E7FFF762FE9F
:10064000801B642873D828688003F7D50CE0FFF777
:1006500059FE064605E000BFFFF754FE801B6428E4
:10066000F0D828688003F7D42078DFF8A0828007CC
:100670004FF000093ED5DAF80010504611F00C0F8B
:1006800009D00068C0F3810002280BD19D48001FEB
:100690000068400206D42868800715D5E068012864
:1006A00009D111E0E068B8B10120C8F80000FFF7F7
:1006B00029FE064605E020E1FFF724FE801B022804
:1006C000C0D828688007F7D52868216920F0F8008D
:1006D00040EAC10028600DE0C8F80090FFF712FE64
:1006E000064604E0FFF70EFE801B02281FD828688C
:1006F0008007F7D42078000722D5824E84486169AC
:100700006C3671B101210160FFF7FCFD074604E082
:10071000FFF7F8FDC01B022809D830688007F7D51D
:100720000EE0C0F80090FFF7EDFD074605E082E01F
:10073000FFF7E8FDC01B02287DD830688007F7D49A
:100740002078400768D5DFF8BCB100270BF1380BE3
:10075000DBF80000C0000BD4DBF8001041F0805142
:10076000CBF80010DBF80000012700F0805000906B
:10077000684E3068C00510D4306840F48070306036
:10078000FFF7C0FD009005E0FFF7BCFD0099401A9F
:10079000022850D83068C005F6D55A4EA068683691
:1007A00001280FD00528306810D020F001003060FB
:1007B000306820F004003060A068B8B1FFF7A2FDF7
:1007C00000900FE0306840F00100F4E740F00400D2
:1007D0003060F7E7FFF796FD0099411A41F2883043
:1007E000814266D830688007F4D50EE0FFF78AFDB5
:1007F000009007E0FFF786FD0099411A41F288302A
:10080000814256D830688007F4D42FB1DBF800104D
:1008100021F08051CBF80010A069D0B3DAF80020A5
:100820005146C2F38102022A4AD00228484607D024
:10083000C8F8600000E03CE0FFF764FD04463BE0E0
:100840004746C8F86000FFF75DFD064605E000BFBB
:10085000FFF758FD801B02282BD828688001F7D4A9
:10086000D4E907010843A16A2B4A490802EB014178
:10087000626A41EA8211084394F82C1040EA01614F
:100880002048001F016001203866FFF73BFD044649
:1008900005E034E0FFF736FD001B022809D8286880
:1008A0008001F7D52BE000BFFFF72CFD001B0228CD
:1008B00002D90320BDE8F88F28688001F4D41EE037
:1008C0000128F7D00868E26900F48001914214D150
:1008D000226A00F03F0191420FD147F6C071626A6F
:1008E0000140914209D1A26A00F44031914204D101
:1008F000E16A00F07060884201D00120DAE7002050
:10090000D8E70000083802400038024000004742A3
:10091000800E4742007000400000FFFF10B5401EEF
:10092000B0F1807F01D3012010BD4FF0E024606161
:100930000F21601700F061F80020A06107202061FE
:10094000002010BDFEE7FEE7704770477047FFF7D5
:10095000DFBC000030B593B030216846FFF768FC7B
:1009600014210CA8FFF764FC1A480025016841F027
:1009700080510160006800F08050119016480168B5
:1009800041F4804101600068022400F4804011902D
:100990000120039010200490009406940820CDE9D3
:1009A00007503220099004200A9007200B906846D7
:1009B000FFF706FE0CA90F2081E831004FF4A0508C
:1009C0000F90E002109000210CA8FFF72FFD13B04C
:1009D00030BD00004038024000700040054801680A
:1009E00041F47001016003494FF0006080390860F4
:1009F0007047000088ED00E0FEE70907090E0028B7
:100A000004DB00F1E02080F80014704700F00F00D4
:100A100000F1E02080F8141D704702E008C8121FA2
:100A200008C1002AFAD170477047002001E001C1D7
:100A3000121F002AFBD17047FFF772FCFFF78AFFF5
:100A4000FFF734FC104C00254FF47A76206840F410
:100A500080502060206840F4804020603046FFF7DE
:100A60003FFC206825603046FFF73AFC206825608F
:100A7000206840F4805020603046FFF731FC206849
:100A800000F480502060E1E7140C024000000000F8
:100A9000000000000102030406070809BC0A000860
:100AA00000000020100000001A0A0008CC0A00080C
:100AB00010000020000400002A0A000801000000C5
:0C0AC00010000000000000000024F40002
:040000050800018965
:00000001FF
